:020000040000FA
:04000000803105281E
:100008000900CA2076201310931013119311941429
:100018001312931213131412941614139417111520
:10002800911411141411E52070208F1C1E28A301AF
:10003800A82121280130A300A8211728630022281D
:100048002D110E1A2D15941718129816181702301C
:10005800F000F00B2D280000AD138F1BAD171813FF
:100068000230F000F00B3628000018170230F000BC
:10007800F00B3C2818130230F000F00B4128000068
:10008800AD1B2A2818122D1918160800181201304D
:10009800A4004A210430F200F30162208030A40059
:1000A8004A218530F000F00B572808001930F0007D
:1000B800F00B5C280000F50B5A280800F30A0E30F4
:1000C800F100BD30F000F00B6728F10B6528F20B4A
:1000D8006328F30B632808000C1874281915752871
:1000E800191108003230F200F301622093129812BD
:1000F80014129412141394131312131318121813BE
:1001080099131913991619160530F000F00B8A285F
:1001180018170530F000F00B8F2818130A30F2007A
:10012800F30162200330B10018170530F000F00B1E
:100138009B2818130130F200F3016220B10B9828B4
:1001480099131913991619120530F000F00BAA2803
:1001580018170530F000F00BAF2818130130F10024
:10016800F001F00BB528F10BB4280930F000F00BC2
:10017800BB282830A4004A210630A4004A210C30AC
:10018800A4004A214A200C30A90008006030310040
:100198008D008F0191019201063093002100131107
:1001A80093133E00B801C301CE01D901E401330025
:1001B8009413901320008C018D018E018F01900102
:1001C80008004A200130A0000B222B08B60002309C
:1001D800A0000B222B08B70003303602B200833090
:1001E800F5001A30F6003208F900FA0156237508AE
:1001F800B4007608B50004303402B2000030353B54
:10020800B3003208F5003308F6000530F900FA01AA
:1002180056237508A10003303702B2008330F50079
:100228001A30F6003208F900FA0156237508B400AE
:100238007608B50004303402B2000030353BB30014
:100248003208F5003308F6000530F900FA015623A4
:100258007508A200A601A50190219D30AE0083304B
:10026800AF00B5212208A700D6210130A600A501BC
:100278009021A430AE008330AF00B5212108A7003B
:10028800D621F430F2000130F300622824209812BD
:1002980014129412141394139913A41B9917191375
:1002A800241B19179912A41A99161912241A191627
:1002B8000230F000F00B5E29000018170230F00041
:1002C800F00B642918139913A419991719132419F1
:1002D80019179912A4189916191224181916023008
:1002E800F000F00B7529000018170230F000F00B31
:1002F8007B291813E230F000F00B802900000E1A59
:100308008F291030240203188F292408073C03186A
:100318008F292408A900080018122608013C031890
:1003280099290230A6021430A5072608F5004030A6
:10033800F9008A2325087007B20080303204A4002F
:100348004A210530F5005A282303031DB029181047
:10035800981418119815B42918149810181598118C
:1003680008002E0884002F0885000008AA00AA08A3
:100378000319080018160130B00030082E07840051
:1003880000302F3D85000008A4004A2130082A02C9
:10039800B200F500F9012A23F009701CD529B00A2A
:1003A800C1290800A801181664302702031CE9298E
:1003B8002708F5006430F90042237508A800700882
:1003C800A70030302807A4004A212808F900F501C1
:1003D8003B237008B2002708F5000A30F9003B23D8
:1003E800F00932087004B400341C072A2708F50005
:1003F8000A30F90042237508A8007008A7003030B9
:100408002807A4004A2130302707A4004A292100E0
:1004180013112000200821009E002000A008031DC1
:10042800182A3E003814042B2003031D1E2A3E0000
:10043800B814042B02302002031D252A3E0038156B
:10044800042B03302002031D2C2A3E00B815042B70
:1004580004302002031D332A3E003816042B0530D1
:100468002002031D3A2A3E00B816042B063020024B
:10047800031D412A3E003817042B07302002031DB4
:10048800482A3E00B817042B08302002031D4F2AC3
:100498003E004314042B09302002031D562A3E0057
:1004A800C314042B0A302002031D5D2A3E004315A5
:1004B800042B0B302002031D642A3E00C315042BB5
:1004C8000C302002031D6B2A3E004316042B0D300E
:1004D8002002031D722A3E00C316042B0E30200290
:1004E800031D792A3E004317042B0F302002031DF9
:1004F800802A3E00C317042B10302002031D872AD0
:100508003E004E14042B11302002031D8E2A3E009B
:10051800CE14042B12302002031D952A3E004E15DE
:10052800042B13302002031D9C2A3E00CE15042BF9
:1005380014302002031DA32A3E004E16042B15304A
:100548002002031DAA2A3E00CE16042B16302002D4
:10055800031DB12A3E004E17042B17302002031D3D
:10056800B82A3E00CE17042B18302002031DBF2ADC
:100578003E005914042B19302002031DC62A3E00E0
:10058800D914042B1A302002031DCD2A3E00591518
:10059800042B1B302002031DD42A3E00D915042B3E
:1005A8001C302002031DDB2A3E005916042B1D3087
:1005B8002002031DE22A3E00D916042B1E30200219
:1005C800031DE92A3E005917042B1F302002031D82
:1005D800F02A3E00D917042B20302002031DF72AE9
:1005E8003E006414042B21302002031DFE2A3E0025
:1005F800E414042B22302002031D042B3E00641552
:10060800210013120130980013120F3098001311B3
:1006180013112000200821009E0093170230F500D6
:1006280020005A202100131400001318192B9313CB
:100638003E00B801C301CE01D901E40121000D0833
:100648002000AB002100131120000800F0017508FC
:1006580079020319F0090800F00175087902031DF1
:10066800080076087A02031D0800F0090800F00166
:10067800031479087502031CF0090800F908031926
:100688000800F0010830F4000310F50DF00D7908AA
:10069800F00275140318532B75107908F007F40B42
:1006A800482B08007508F7007608F8007908FB0061
:1006B8007A08FC00F201F3017B08F5007C08F600DB
:1006C800F901FA013023701C6C2BF501F6010800C2
:1006D8001030F4000310F70DF80DF20DF30D7B0840
:1006E800F2027C08F33B771403187F2B77107B0802
:1006F800F2077C08F33DF40B6E2B7708F5007808B9
:10070800F6007208F0007308F1000800F00175089F
:100718007918F0070310F90C0310F50DF908031DFB
:100728008B2B080078088A007708F70A0319F80A5B
:10073800820006344C344534463454343A34203438
:100748000734463452344F344E3454343A34203417
:020000040001F9
:0A000E008C3FFE3F9F3FFF1FFF3FA6
:00000001FF
