:020000040000FA
:04000000803105281E
:1000080009001720131093101311931114160F1EC3
:100018001028A001322013280130A00032200B281C
:10002800152863001528603031008D008F0191017B
:100038009201063093002100131193133E00B8017A
:10004800C301CE01D901E4013300941390132000B9
:100058008C018D018E018F01900108002003031D82
:100068003A2818109814181198153E281814981042
:06007800181598110800A4
:020000040001F9
:0A000E008C3FFE3F9F3FFF1FFF3FA6
:00000001FF
