:020000040000FA
:04000000803105281E
:100008000900252094101310991418147D30F2005B
:10001800F301172018107D30F200F301172009288A
:10002800152863001528F30A0E30F100BD30F000E2
:10003800F00B1C28F10B1A28F20B1828F30B1828C0
:100048000800603031008D008F0191019201063067
:1000580093002100131193133E00B801C301CE0190
:10006800D901E40133009413901320008C018D0111
:080078008E018F0190010800C8
:020000040001F9
:0A000E008C3FFE3F9F3FFF1FFF3FA6
:00000001FF
