:020000040000FA
:04000000803105281E
:100008000900CA20762013109310131193111114AC
:100018001410941014111412941614139417111523
:10002800911591141112E52070200C1C1E28A301B3
:10003800A82121280130A300A8211728630022281D
:100048002D110F182D159417191099141915023020
:10005800F000F00B2D280000AD138F1BAD17191100
:100068000230F000F00B3628000019150230F000BD
:10007800F00B3C2819110230F000F00B4128000069
:10008800AD1B2A2819102D19191408001910013050
:10009800A4004A210430F200F30162208030A40059
:1000A8004A218530F000F00B572808001930F0007D
:1000B800F00B5C280000F50B5A280800F30A0E30F4
:1000C800F100BD30F000F00B6728F10B6528F20B4A
:1000D8006328F30B632808008C18742816167528F3
:1000E800161208003230F200F301622094109910C1
:1000F80014129412141394131410141119101911C2
:1001080099131913991619160530F000F00B8A285F
:1001180019150530F000F00B8F2819110A30F2007C
:10012800F30162200330B10019150530F000F00B1F
:100138009B2819110130F200F3016220B10B9828B5
:1001480099131913991619120530F000F00BAA2803
:1001580019150530F000F00BAF2819110130F10026
:10016800F001F00BB528F10BB4280930F000F00BC2
:10017800BB282830A4004A210630A4004A210C30AC
:10018800A4004A214A200C30A90008006030310040
:100198008D008F0191019201063093002100131107
:1001A80093133E00B801C301CE01D901E401330025
:1001B8009413901320008C018D018E018F01900102
:1001C80008004A200230A00008222B08B60003309D
:1001D800A00008222B08B70003303602B200833093
:1001E800F5001A30F6003208F900FA014D237508B7
:1001F800B4007608B50004303402B2000030353B54
:10020800B3003208F5003308F6000530F900FA01AA
:100218004D237508A10003303702B2008330F50082
:100228001A30F6003208F900FA014D237508B400B7
:100238007608B50004303402B2000030353BB30014
:100248003208F5003308F6000530F900FA014D23AD
:100258007508A200A601A50190219430AE00833054
:10026800AF00B5212208A700D3210130A600A501BF
:1002780090219B30AE008330AF00B5212108A70044
:10028800D321F430F2000130F300622824209910C1
:1002980014129412141394139913A41B9917191375
:1002A800241B19179912A41A99161912241A191627
:1002B8000230F000F00B5E29000019150230F00042
:1002C800F00B642919119913A419991719132419F2
:1002D80019179912A4189916191224181916023008
:1002E800F000F00B7529000019150230F000F00B32
:1002F8007B291911E230F000F00B802900000F185B
:100308008F291030240203188F292408073C03186A
:100318008F292408A900080019102608013C031891
:1003280099290230A6021430A5072608F5004030A6
:10033800F900812325087007B20080303204A40038
:100348004A210530F5005A282303031DB029181047
:10035800981418119815B42918149810181598118C
:1003680008002E0884002F0885000008AA00AA08A3
:10037800031908001914B00101302A02031CD229FC
:10038800B00A30082E07840000302F3D8500000891
:10039800A4004A212A083002031CC4290800A80125
:1003A800191464302702031CE6292708F500643075
:1003B800F90039237508A8007008A700303028070D
:1003C800A4004A212808F900F50132237008B20078
:1003D8002708F5000A30F9003223F00932087004C2
:1003E800B400341C042A2708F5000A30F900392320
:1003F8007508A8007008A70030302807A4004A2113
:1004080030302707A4004A292100131120002008B2
:1004180021009E002000A008031D152A3E00381464
:10042800012B2003031D1B2A3E00B814012B0230A8
:100438002002031D222A3E003815012B033020021A
:10044800031D292A3E00B815012B04302002031D84
:10045800302A3E003816012B05302002031D372AAA
:100468003E00B816012B06302002031D3E2A3E002E
:100478003817012B07302002031D452A3E00B81704
:10048800012B08302002031D4C2A3E004314012B87
:1004980009302002031D532A3E00C314012B0A30E1
:1004A8002002031D5A2A3E004315012B0B3020025F
:1004B800031D612A3E00C315012B0C302002031DC9
:1004C800682A3E004316012B0D302002031D6F2AB7
:1004D8003E00C316012B0E302002031D762A3E0073
:1004E8004317012B0F302002031D7D2A3E00C3173E
:1004F800012B10302002031D842A3E004E14012BCC
:1005080011302002031D8B2A3E00CE14012B12301D
:100518002002031D922A3E004E15012B13302002A3
:10052800031D992A3E00CE15012B14302002031D0D
:10053800A02A3E004E16012B15302002031DA72AC3
:100548003E00CE16012B16302002031DAE2A3E00B7
:100558004E17012B17302002031DB52A3E00CE1777
:10056800012B18302002031DBC2A3E005914012B10
:1005780019302002031DC32A3E00D914012B1A305A
:100588002002031DCA2A3E005915012B1B302002E8
:10059800031DD12A3E00D915012B1C302002031D52
:1005A800D82A3E005916012B1D302002031DDF2AD0
:1005B8003E00D916012B1E302002031DE62A3E00FC
:1005C8005917012B1F302002031DED2A3E00D917B1
:1005D800012B20302002031DF42A3E006414012B55
:1005E80021302002031DFB2A3E00E414012B223097
:1005F8002002031D012B3E00641521001312013057
:10060800980013120F3098001311131120002008BE
:1006180021009E0093170230F50020005A20210087
:10062800131400001318162B93133E00B801C301CE
:10063800CE01D901E40121000D082000AB00210002
:10064800131120000800F00175087902031D080045
:1006580076087A02031D0800F0090800F001031467
:1006680079087502031CF0090800F9080319080045
:10067800F0010830F4000310F50DF00D7908F002D0
:10068800751403184A2B75107908F007F40B3F2BE3
:1006980008007508F7007608F8007908FB007A0862
:1006A800FC00F201F3017B08F5007C08F600F90173
:1006B800FA012723701C632BF501F601080010309E
:1006C800F4000310F70DF80DF20DF30D7B08F2029C
:1006D8007C08F33B77140318762B77107B08F20716
:1006E8007C08F33DF40B652B7708F5007808F600D5
:1006F8007208F0007308F1000800F0017508791815
:10070800F0070310F90C0310F50DF908031D822BEF
:10071800080078088A007708F70A0319F80A82009F
:1007280006344C344534463454343A34203407348F
:0E073800463452344F344E3454343A34203464
:020000040001F9
:0A000E008C3FFE3F9F3FFF1FFF3FA6
:00000001FF
