:020000040000FA
:04000000803105281E
:100008000900C1206D20131093101311931194143B
:100018001312931213131412941614139417111520
:100028009114DC208F1C1B28A3019F211E2801305E
:10003800A3009F21152863001F282D110E1A2D15C6
:1000480094171812981618170230F000F00B2A2887
:100058000000AD138F1BAD1718130230F000F00B22
:100068003328000018170230F000F00B3928181355
:100078000230F000F00B3E280000AD1B27281812B4
:100088002D191816080018120130A4004121043057
:10009800F200F3015F208030A40041218530F00098
:1000A800F00B542808001930F000F00B5928000014
:1000B800F50B57280800F30A0E30F100BD30F000A8
:1000C800F00B6428F10B6228F20B6028F30B602810
:1000D80008003230F200F3015F20931298121412D4
:1000E8009412141394131312131318121813991348
:1000F8001913991619160530F000F00B81281817F6
:100108000530F000F00B862818130A30F200F301CE
:100118005F200330B10018170530F000F00B92286B
:1001280018130130F200F3015F20B10B8F289913E7
:100138001913991619120530F000F00BA128181799
:100148000530F000F00BA62818130130F100F0017B
:10015800F00BAC28F10BAB280930F000F00BB228FB
:100168002830A40041210630A40041210C30A4000D
:10017800412147200C30A9000800603031008D0073
:100188008F019101920106309300210013119313FE
:100198003E00B801C301CE01D901E4013300941334
:1001A800901320008C018D018E018F0190010800B1
:1001B80047200130A00002222B08B6000230A00020
:1001C80002222B08B70003303602B2008330F50054
:1001D8001A30F6003208F900FA014D237508B40008
:1001E8007608B50004303402B2000030353BB30065
:1001F8003208F5003308F6000530F900FA014D23FE
:100208007508A10003303702B2008330F5001A30B8
:10021800F6003208F900FA014D237508B400760893
:10022800B50004303402B2000030353BB300320868
:10023800F5003308F6000530F900FA014D2375087A
:10024800A200A601A50187219430AE008330AF003B
:10025800AC212208A700CD210130A600A5018721E5
:100268009B30AE008330AF00AC212108A700CD2120
:10027800F430F2000130F3005F28212098121412A4
:100288009412141394139913A41B99171913241B6C
:1002980019179912A41A99161912241A1916023044
:1002A800F000F00B5529000018170230F000F00B91
:1002B8005B2918139913A4199917191324191917D5
:1002C8009912A41899161912241819160230F00058
:1002D800F00B6C29000018170230F000F00B72299F
:1002E8001813E230F000F00B772900000E1A862967
:1002F80010302402031886292408073C031886298D
:100308002408A900080018122608013C031890299F
:100318000230A6021430A5072608F5004030F9007F
:10032800812325087007B20080303204A4004121DF
:100338000530F50057282303031DA7291810981422
:1003480018119815AB291814981018159811080049
:100358002E0884002F0885000008AA00AA0803199F
:10036800080018160130B00030082E07840000304D
:100378002F3D85000008A400412130082A02B20060
:10038800F500F9012123F009701CCC29B00AB8291D
:100398000800A801181664302702031CE029270862
:1003A800F5006430F90039237508A8007008A70023
:1003B80030302807A40041212808F900F50132232C
:1003C8007008B2002708F5000A30F9003223F00956
:1003D80032087004B400341CFE292708F5000A30DE
:1003E800F90039237508A8007008A70030302807DD
:1003F800A400412130302707A4004129210013110E
:100408002000200821009E002000A008031D0F2ABC
:100418003E003814FB2A2003031D152A3E00B81499
:10042800FB2A02302002031D1C2A3E003815FB2A35
:1004380003302002031D232A3E00B815FB2A04308E
:100448002002031D2A2A3E003816FB2A0530200206
:10045800031D312A3E00B816FB2A06302002031D70
:10046800382A3E003817FB2A07302002031D3F2A8E
:100478003E00B817FB2A08302002031D462A3E001A
:100488004314FB2A09302002031D4D2A3E00C314E1
:10049800FB2A0A302002031D542A3E004315FB2A7A
:1004A8000B302002031D5B2A3E00C315FB2A0C30CB
:1004B8002002031D622A3E004316FB2A0D3020024B
:1004C800031D692A3E00C316FB2A0E302002031DB5
:1004D800702A3E004317FB2A0F302002031D772A9B
:1004E8003E00C317FB2A10302002031D7E2A3E005F
:1004F8004E14FB2A11302002031D852A3E00CE141B
:10050800FB2A12302002031D8C2A3E004E15FB2ABE
:1005180013302002031D932A3E00CE15FB2A143007
:100528002002031D9A2A3E004E16FB2A153020028F
:10053800031DA12A3E00CE16FB2A16302002031DF9
:10054800A82A3E004E17FB2A17302002031DAF2AA7
:100558003E00CE17FB2A18302002031DB62A3E00A3
:100568005914FB2A19302002031DBD2A3E00D91454
:10057800FB2A1A302002031DC42A3E005915FB2A03
:100588001B302002031DCB2A3E00D915FB2A1C3044
:100598002002031DD22A3E005916FB2A1D302002D4
:1005A800031DD92A3E00D916FB2A1E302002031D3E
:1005B800E02A3E005917FB2A1F302002031DE72AB4
:1005C8003E00D917FB2A20302002031DEE2A3E00E8
:1005D8006414FB2A21302002031DF52A3E00E4148E
:1005E800FB2A22302002031DFB2A3E00641521004D
:1005F80013120130980013120F30980013111311C1
:100608002000200821009E0093170230F5002000EA
:1006180057202100131400001318102B93133E00C9
:10062800B801C301CE01D901E40121000D08200061
:10063800AB002100131120000800F00175087902B1
:100648000319F0090800F00175087902031D080074
:1006580076087A02031D0800F0090800F001031467
:1006680079087502031CF0090800F9080319080045
:10067800F0010830F4000310F50DF00D7908F002D0
:10068800751403184A2B75107908F007F40B3F2BE3
:1006980008007508F7007608F8007908FB007A0862
:1006A800FC00F201F3017B08F5007C08F600F90173
:1006B800FA012723701C632BF501F601080010309E
:1006C800F4000310F70DF80DF20DF30D7B08F2029C
:1006D8007C08F33B77140318762B77107B08F20716
:1006E8007C08F33DF40B652B7708F5007808F600D5
:1006F8007208F0007308F1000800F0017508791815
:10070800F0070310F90C0310F50DF908031D822BEF
:10071800080078088A007708F70A0319F80A82009F
:1007280006344C344534463454343A34203407348F
:0E073800463452344F344E3454343A34203464
:020000040001F9
:0A000E008C3FFE3F9F3FFF1FFF3FA6
:00000001FF
