:020000040000FA
:04000000803105281E
:0800080009002E2013109310D3
:10001000131193111810981418119815E830F20064
:100020000330F30020201814981018159811E830A8
:10003000F2000330F30020200A281E2863001E2847
:10004000F30A0E30F100BD30F000F00B2528F10B63
:100050002328F20B2128F30B2128080060303100FF
:100060008D008F0191019201063093002100131140
:1000700093133E00B801C301CE01D901E40133005E
:100080009413901320008C018D018E018F0190013B
:02009000080066
:020000040001F9
:02000E008C3F25
:08001000FE3F9F3FFF1FFF3F71
:00000001FF
