:020000040000FA
:04000000803105281E
:100008000900BF206B20131093101311931194143F
:100018001312931213131412941614139417DA204C
:100028008F1C1928A00148211C280130A000482154
:10003800132863001D2827110E1A27159417181264
:10004800981618170230F000F00B28280000A713A4
:100058008F1BA71718130230F000F00B312800008F
:1000680018170230F000F00B372818130230F00090
:10007800F00B3C280000A71B252818122719181672
:10008800080018120130A100EA200430F200F30140
:100098005D208030A100EA208530F000F00B522866
:1000A80008001930F000F00B57280000F50B552810
:1000B8000800F30A0E30F100BD30F000F00B6228A2
:1000C800F10B6028F20B5E28F30B5E280800323033
:1000D800F200F3015D209312981214129412141373
:1000E800941313121313181218139913191399163A
:1000F80019160530F000F00B7F2818170530F000AE
:10010800F00B842818130A30F200F3015D20033045
:10011800AB0018170530F000F00B902818130130C9
:10012800F200F3015D20AB0B8D2899131913991672
:1001380019120530F000F00B9F2818170530F00051
:10014800F00BA42818130130F100F001F00BAA28D5
:10015800F10BA9280930F000F00BB0282830A100D5
:10016800EA200630A100EA200C30A100EA20452050
:100178000C30A4000800603031008D008F0191011F
:100188009201063093002100131193133E00B80129
:10019800C301CE01D901E401330094139013200068
:1001A8008C018D018E018F019001080045208F3050
:1001B800A8008130A90055210130A3000230A20017
:1001C80030218F30A8008130A90055291F209812AE
:1001D80014129412141394139913A11B9917191339
:1001E800211B19179912A11A99161912211A1916F1
:1001F8000230F000F00BFE28000018170230F00063
:10020800F00B042918139913A11999171913211917
:1002180019179912A11899161912211819160230CE
:10022800F000F00B1529000018170230F000F00B51
:100238001B291813E230F000F00B202900000E1AD9
:100248002F291030210203182F292108073C0318F1
:100258002F292108A400080018122308013C0318BC
:1002680039290230A3021430A2072308F5004030D0
:10027800F9007C2122087007AC0080302C04A10012
:10028800EA200530F50055282003031D50291810D1
:1002980098141811981554291814981018159811AD
:1002A800080028088400290885000008A500A5087A
:1002B8000319080018160130AA002A082807840024
:1002C8000030293D85000008A100EA202A082502FF
:1002D800AC00F500F9017621F009701C7529AA0A0D
:1002E80061290800F001750879020319F00908006E
:1002F800F00175087918F0070310F90C0310F50DD3
:10030800F908031D7D29080078088A007708F70A8C
:100318000319F80A82000C34473443344234413418
:10032800533449344334203432343034323434345E
:020000040001F9
:0A000E008C3FFE3F9F3FFF1FFF3FA6
:00000001FF
